:1000000000000020350F0000550D0000550D0000C8
:10001000550D0000550D0000550D000000000000BA
:10002000000000000000000000000000550D00006E
:10003000550D000000000000550D0000550D00009A
:10004000550D0000550D0000550D0000550D000028
:10005000550D0000550D0000550D0000550D000018
:10006000550D0000550D0000550D0000550D000008
:10007000550D0000550D0000550D0000550D0000F8
:10008000550D0000550D0000550D0000550D0000E8
:10009000550D0000550D0000550D0000550D0000D8
:1000A000550D0000550D0000550D0000550D0000C8
:1000B000550D0000550D0000550D0000550D0000B8
:1000C000550D0000550D0000550D0000490D0000B4
:1000D000550D0000550D0000550D0000550D000098
:1000E000550D0000550D0000550D0000550D000088
:0400F000550D0000AA
:10041000044B05481B1A062B02D9044B03B118479D
:10042000704700BF5FF1FF1F5CF1FF1F000000007D
:1004300005490648091A891001EBD171491002D00B
:10044000034B03B1184770475CF1FF1F5CF1FF1FBE
:100450000000000010B5064C237843B9FFF7D8FF21
:10046000044B13B10448AFF300800123237010BD87
:1004700000F2FF1F00000000F03B000008B5084B31
:100480001BB108490848AFF300800848036813B956
:10049000BDE80840CCE7064B002BF9D09847F7E7BA
:1004A0000000000004F2FF1FF03B00005CF1FF1FA2
:1004B00000000000154B002B08BF134B9D46A3F511
:1004C000803A00218B460F461348144A121A03F053
:1004D000E4FA0F4B002B00D098470E4B002B00D0B6
:1004E00098470020002104000D000D48002802D08C
:1004F0000C48AFF3008003F09FFA2000290000F0C1
:1005000023F803F085FA00BF000008000000002077
:10051000000000000000000000F2FF1F10FCFF1FA1
:10052000000000000000000080B400AF054B4AF25C
:1005300002629A81034B4BF280429A81BD4680BC95
:10054000704700BF0020054080B500AF00F0D8F82C
:10055000002000F081F800F00BF8002001F03AFDD7
:1005600000F0FCFAFFF7E0FF00F01CFBFAE700BF29
:1005700080B400AF3449344B03F5815318331B6802
:1005800043F4006201F5815318331A602F4B4FF486
:1005900080725A622D4A2D4B5B6A43F064035362AA
:1005A0002A4B4FF480729A62284A284B9B6A43F088
:1005B00064039362264B4FF4C0625A60244A244B72
:1005C0005B6943F4C0635361204B4FF480725A60FF
:1005D0001F4A1F4B5B6923F0020353611B4A1B4BED
:1005E0005B6843F003035360184A184B5B6843F49D
:1005F00020235360154B4FF480729A60144A144BB9
:100600005B6923F004035361104A104B9B6843F06D
:10061000030393600D4A0D4B9B6843F420239360C2
:100620000A4B0222C3F8A020084B0422C3F8A020E2
:10063000084B4FF48062C3F88421064B4FF480626C
:100640005A60BD4680BC70470070044000B0044052
:1006500080F00F4000E100E080B483B000AF0346BB
:10066000FB71FB79002B40D12249224B03F58253C9
:1006700008331B6823F00F0201F5825308331A6018
:100680001C4B03F58253083300221A601949194B99
:1006900003F5805304331B6843F4A02201F5805313
:1006A00004331A601349134B03F5815314331B6849
:1006B00043F4802201F5815314331A600E4B40221B
:1006C00083F80C210B4A0B4B5B6843F0807353603B
:1006D000084A084B1B6843F000431360074B08228D
:1006E000C3F88421054B08225A600C37BD4680BCF4
:1006F000704700BF007004400020074000E100E0A8
:1007000080B500AF00F01EF880BD00BF80B400AF20
:100710000A4A0A4B1B78DBB203F03F03DBB21370CB
:10072000064B9B79DBB203F00C039B08032BF7D13C
:10073000034B80221A70BD4680BC704700400640C3
:100740000050064080B500AF1B4B2C225A701A4B4C
:1007500098221A70184B9B79DBB203F00203002B2E
:10076000F8D0154B9B79DBB203F00C039B08022BEE
:10077000F7D1114B43221A710F4B00225A710F4BC4
:1007800003F5825304334FF480321A600A4B40223F
:100790005A71094B9B79DBB203F02003002BF8D090
:1007A000054B9B79DBB203F04003002BF8D0FFF739
:1007B000ADFF0023184680BD004006400070044095
:1007C00090B484B000AF0446084611461A4623464A
:1007D000FB710346BB710B467B7113467B80BB7973
:1007E000032B48D17B88002B07D1324ABB691A60A2
:1007F00004239AB2FB691A8055E00023FB7301239E
:10080000BB7314E0FA7B2C4913465B0013449B0036
:100810000B4408331B887A889A4205D17B79022BD6
:1008200009D87B79BB7307E0FB7B0133FB73FB7B50
:10083000002BE7D000E000BFFA7B1F4913465B00A6
:1008400013449B000B440C331A68BB7B9B0013447E
:100850001A68BB691A60FA7B174913465B00134498
:100860009B000B4410331A68BB7B13441B789AB26D
:10087000FB691A8017E0BB79072B12D8BB790F4AA6
:1008800052F82320BB691A60BB691B68002B01D199
:10089000CD2309E0BB790A4A32F81320FB691A809C
:1008A00001E0CD2300E0002318461037BD4690BC80
:1008B000704700BF68F0FF1FC83B0000943B00007A
:1008C000843B000080B483B000AF03463A60FB7104
:1008D0000B46BB71BB79012B06D8BB79054AD25CAC
:1008E0003B681A70002300E0CD2318460C37BD4644
:1008F00080BC704788FBFF1F80B483B000AF034605
:10090000FB710B46BB7113467B71BB79012B05D87C
:10091000BB7905497A79CA54002300E0CD231846F3
:100920000C37BD4680BC704788FBFF1F80B485B084
:1009300000AF03460A46FB711346BB800023FB73DE
:100940000BE0FB7B094AD35C9BB2BA889A4201D187
:10095000012306E0FB7B0133FB73FB7B012BF0D90A
:10096000002318461437BD4680BC7047E83B0000A2
:1009700080B483B000AF0346FB71002318460C37E8
:10098000BD4680BC704700BF80B483B000AF034653
:10099000FB71034B18460C37BD4680BC704700BF47
:1009A000743B000080B483B000AF03463A60FB7133
:1009B0000B46BB71BB79012B09D8BA791346DB0012
:1009C0009B1A064A1A443B681A60002300E0CD23B4
:1009D00018460C37BD4680BC704700BFECF0FF1FC7
:1009E00090B484B000AF03463A60FB710B46BB7114
:1009F000BB79012B1AD80023FB7312E0BA79F97B7B
:100A00003B681868FB7B083303441C780A4813468C
:100A1000DB009B1A03440B4422461A70FB7B013314
:100A2000FB73FB7B062BE9D9002300E0CD2318469E
:100A30001037BD4690BC7047ECF0FF1F80B483B008
:100A400000AF03463A60FB710B46BB71BB79012BCB
:100A500007D8BB795B00064A1A443B681A6000233A
:100A600000E0CD2318460C37BD4680BC704700BF60
:100A700080FBFF1F80B483B000AF03463A60FB7178
:100A80000B46BB71BB79012B07D8BB795B00064ACB
:100A90001A443B681A60002300E0CD2318460C3747
:100AA000BD4680BC704700BF84FBFF1F80B485B08B
:100AB00000AF03463A60FB710B46BB71BB79012B5B
:100AC00017D80023FB730FE0BA79FB7B39680868FD
:100AD000F97B014408780A4952000A44134402464B
:100AE0001A70FB7B0133FB73FB7B012BECD90023DA
:100AF00000E0CD2318461437BD4680BC704700BFC8
:100B000080FBFF1F80B485B000AF03463A60FB71E5
:100B10000B46BB71BB79012B17D80023FB730FE089
:100B2000BA79FB7B39680868F97B014408780A497F
:100B300052000A44134402461A70FB7B0133FB73D4
:100B4000FB7B012BECD9002300E0CD2318461437A2
:100B5000BD4680BC704700BF84FBFF1F80B584B0DA
:100B600002AF0C4B00221A700B4B00221A7072B6A7
:100B700001230093094B00220949002000F0AAFF3D
:100B80000346FB71FB79002B00D162B60837BD46E6
:100B900080BD00BF0CFCFF1F0DFCFF1F110D0000EE
:100BA000650C000080B500AF02F022FE064B1B78FA
:100BB000DBB2012B06D1054B1B78DBB2012B01D137
:100BC00000F006F880BD00BF8AFBFF1FFAF0FF1F90
:100BD00080B582B000AF1E4B1B78002B20D01D4B80
:100BE00000221A700FE01B4B1B781A46194B1B781A
:100BF0001946194B595C194B9954164B1B78013304
:100C0000DAB2144B1A70134B1A78114B1B789A42B4
:100C1000E9D30F4B1A78124B1A700D4B00221A7041
:100C20000F4B1B78002B10D00D4B1B78FB710C4B1E
:100C300000221A70FB799BB2084A0121002000F0C3
:100C4000CDFF03461A46034B1A700837BD4680BDD8
:100C50000CFCFF1F0EFCFF1F8CFBFF1FCCFBFF1FBC
:100C60000DFCFF1F80B586B000AF03463A60FB71F4
:100C70000B46BB71BB79002B03D1214B00221A70AC
:100C80003BE0BB79022B03D11D4B01221A7034E0EB
:100C9000BB79042B23D11B4B1B78DBB2012B1ED15C
:100CA0003B683B613B699B88402B28BF4023FB810D
:100CB0000023FB750AE0FB7D3A691168FA7D0A445E
:100CC0001178114AD154FB7D0133FB75FB7D9BB23A
:100CD000FA899A42EFD80D4AFB7D13700DE0BB797B
:100CE000032B0AD1074B1B78DBB2012B05D1002364
:100CF00000220221002001F0C7FD1837BD4680BD4B
:100D00008AFBFF1FFAF0FF1F8CFBFF1F0CFCFF1F6D
:100D100080B483B000AF03463A60FB710B46BB71F1
:100D2000074B1B78DBB2012B05D1BB79222B02D1FB
:100D3000044B01221A700C37BD4680BC704700BFBF
:100D40008AFBFF1FFAF0FF1F80B500AF02F0ACF87E
:100D500080BD00BF80B400AF00BEBD4680BC704700
:100D600080B400AF4FF0E0230A4AC3F8082D0A4BC5
:100D70004CF22052DA81084B4DF62812DA81064AED
:100D8000054B1B889BB223F001039BB21380BD4629
:100D900080BC7047000000000020054080B48BB08C
:100DA00000AFF860B9607A607B687B6204233B62C5
:100DB0000323FB610223BB6101237B6101233B61B0
:100DC000FA68BB689A4254D07B68002B51D04DE042
:100DD000BA68FB691340002B19D1FA68FB6913400C
:100DE000002B14D17A6A3B6A9A4210D3FB68BA6826
:100DF00012681A60FA683B6A1344FB60BA683B6A7F
:100E00001344BB607A6A3B6AD31A7B622EE0BA68ED
:100E10007B691340002B19D1FA687B691340002BC2
:100E200014D17A6ABB699A4210D3FB68BA681288F7
:100E30001A80FA68BB691344FB60BA68BB69134443
:100E4000BB607A6ABB69D31A7B620FE0FB68BA6841
:100E500012781A70FA683B691344FB60BA683B6900
:100E60001344BB607A6A3B69D31A7B627B6A002BAE
:100E7000AED12C37BD4680BC704700BF90B583B063
:100E800000AF254B002B43D000237B6020E022499C
:100E90007A6813465B0013449B000B4404331868C4
:100EA0001D497A6813465B0013449B000B441C6881
:100EB00019497A6813465B0013449B000B440833BE
:100EC0001B681A462146FFF769FF7B6801337B6088
:100ED00011497A6813465B0013449B000B441B685E
:100EE000002BD4D10C497A6813465B0013449B0055
:100EF0000B4404331B68002BC9D107497A68134699
:100F00005B0013449B000B4408331B68002BBED1CD
:100F10000C37BD4690BD00BF743D000080B400AFEB
:100F2000BD4680BC704700BF80B400AFBD4680BCEA
:100F3000704700BF0B4C2046002807D0854681B083
:100F40004FF000006FEA0000009001B0FFF7E6FFED
:100F5000FFF706FFFFF792FFFFF7E6FFFFF7AAFA9A
:100F6000FEE700BF0000002080B584B000AFBA608B
:100F70007B600346FB730B46BB73BB7BCD2B07D15A
:100F800007F10F0301229021184602F0E9F91EE053
:100F9000BB691A88BB68DB889A4203D9BB68DA88C8
:100FA000BB691A80F87B7B681A68BB691B880021C3
:100FB00002F0FAFBBB681B78DBB25BB2002B06DAEF
:100FC00007F10F0000230022002101F05DFC103723
:100FD000BD4680BD80B58AB002AFB9607A603B6023
:100FE0000346FB730023BB610023BB7703237B75A0
:100FF00007F1150207F10F030121184602F07EF9EF
:101000000346FB77BB681B7803F00303002B40D13A
:1010100007F1130207F10F030621184602F06EF9DB
:101020000346FB77FB7C9AB2434B1A80424B1B88EA
:1010300003F003039AB2404B1A803F4B1A883E4B91
:101040001A80F87B07F11603019307F11803009348
:10105000002300220221FFF7B3FB0346FB77BB69A5
:1010600007331B7803F04003002B07D0324B1B885B
:1010700043F001039AB2304B1A8006E02E4B1B88D6
:1010800023F001039AB22C4B1A803B6802221A808B
:1010900049E0BB681B7803F00303012B12D1BB6846
:1010A0009B887B777B7D012B05D17B7F002B02D03A
:1010B000CD23FB7737E0204B00221A803B680222C9
:1010C0001A8030E0BB681B7803F00303022B2AD19F
:1010D0007B7D012B05D1BB7F002B02D0CD23FB777D
:1010E00021E0BB689B88DBB243F01003BB7707F1BC
:1010F0001402B97F07F10F03184602F0FFF8034608
:10110000FB773B7D9AB20C4B1A800B4B1B8803F08C
:1011100001039AB2084B1A80074B1A88064B1A80B3
:101120003B6802221A807B68034A1A60FB7F1846DC
:101130002037BD4680BD00BF70FAFF1F80B586B066
:1011400000AFB9607A603B600346FB73CD23FB754B
:101150003B6800221A80BB685B785B10DBB203F04F
:1011600001037B75BB681B7803F00303002B5ED182
:101170007B7D012B30D1BB685B88012B03D0BB6822
:101180005B88022B23D107F1120207F10F0306211E
:10119000184602F0B3F80346FB75FB7D002B19D10E
:1011A000BB685B88DBB21A4601239340DAB2BB7C92
:1011B000DBB21343DBB2DBB2BB74BA7C07F10F03C3
:1011C0000621184602F0CCF80346FB7568E0CD23F3
:1011D000FB7500E000BF63E0BB685B88012B23D197
:1011E00007F1120207F10F030621184602F086F8F4
:1011F0000346FB75FB7D002B51D1BB685B88DBB2DE
:101200001A4601239340DBB2DB43DAB2BB7C1340C6
:10121000DBB2BB74BA7C07F10F030621184602F05B
:101220009FF80346FB753BE0CD23FB7538E0BB68B8
:101230001B7803F00303022B32D1BB689B88DBB21F
:101240007B747B7C43F01003D9B27A7D07F10F03E6
:10125000184602F085F80346FB757B7D002B01D014
:10126000072300E00823BB75BB685B78012B0ED118
:101270007B7C03F00F033B757B7CDB09FB74FA7C02
:101280003B7D1146184601F0C9FA0823BB75074B90
:101290001B68F87B07F11102B97D984700E000BF99
:1012A000FB7D18461837BD4680BD00BF74FAFF1F8E
:1012B00080B584B000AFB9607A603B600346FB73D1
:1012C0003B6800221A8007F10F030422012118460F
:1012D00002F046F8BB685B88DAB2034B1A70002351
:1012E00018461037BD4680BD72FAFF1F80B582B028
:1012F00000AF0346FB710C4B1A78FB1D11461846D4
:1013000001F0CEFBFB1D01220121184602F028F856
:10131000054B1A78FB1D0321184602F021F8002323
:1013200018460837BD4680BD72FAFF1F80B586B0EB
:1013300000AFB9607A603B600346FB733B680122F3
:101340001A8007F1170207F10F030421184601F074
:10135000D5FFFB7D9AB2074B1A80064B1A88054BC6
:101360001A807B68034A1A60002318461837BD4666
:1013700080BD00BF70FAFF1F80B586B000AFB960B6
:101380007A603B600346FB73CD23FB753B6800220C
:101390001A800423FB75BB685B88BB82FB7BBA8A1F
:1013A00011461846FFF7C2FA0346002B26D0002349
:1013B000BB75BB8A002B01D10123BB75BA7D07F138
:1013C0000F030121184601F0CBFF0346FB75BB8AD2
:1013D000DAB207F10F030421184601F0C1FF0346FA
:1013E000FB75094B1B68F87B07F114020121984734
:1013F000054B1B68F87B002202219847FB7D1846AD
:101400001837BD4680BD00BF74FAFF1F80B586B097
:1014100000AFB9607A603B600346FB73BB681B7822
:1014200003F00303012B01D0042310E03B680122E9
:101430001A80BB689B88D9B2FB7B074A1846FFF726
:1014400041FA0346FB757B68034A1A60FB7D184628
:101450001837BD4680BD00BF70FAFF1F80B586B04B
:1014600000AFB9607A603B600346FB733B680022C3
:101470001A80BB681B7803F00303012B01D00423FF
:101480000CE0BB689B88D9B2BB685B88DAB2FB7B97
:101490001846FFF731FA0346FB7500231846183744
:1014A000BD4680BD80B586B000AFB9607A603B6054
:1014B0000346FB733B6802221A8007F1160207F10C
:1014C0000F030521184601F019FF0346FB75BB7D8C
:1014D0009AB2054B1A807B68034A1A60FB7D184656
:1014E0001837BD4680BD00BF70FAFF1F90B589B0A8
:1014F00002AFB9607A603B600346FB73BB685B88F0
:101500001B0A9BB2FB754FF6FF73BB82FF23FB7474
:10151000BB689B88BB82BB685B88FB74BC8AFA7C17
:10152000F97DF87B3B6801937B6800932346FFF7C6
:1015300047F90346BB74BB7C18461C37BD4690BDBB
:1015400080B588B000AF78607B681B781846FFF7DD
:101550001BFAB8610023FB770EE0FA7FB9691346E6
:101560009B0013440B4401331A787B685B789A42E2
:1015700007D0FB7F0133FB77BB691B78FA7F9A4268
:10158000EBD3FB7F2D4A342101FB03F313440333D8
:101590001B78FB757B681B7A002B11D1FB7F2749D9
:1015A000342202FB03F20A44023212780132D0B232
:1015B000224A342101FB03F31344023302461A701A
:1015C000FB7F1E4A342101FB03F3134402331B78D3
:1015D000BB75BA7DFB7D9A4219D0F97FBB7D03F0C4
:1015E0000302164813465B0013449B00342202FB9F
:1015F00001F21344C21807F10803043207CA83E852
:101600000700387A797AFA683B8A02F0CDF80C4BF9
:101610001B68002B0FD00323BB777B681B7A002B42
:1016200001D00523BB77064B1B687A6810787A686F
:101630000832B97F98472037BD4680BDACFAFF1FFE
:10164000A4FAFF1F80B58AB000AF78607B681B7872
:101650001846FFF799F938627B685B687B617B68A5
:10166000B3F809309BB23B83002387F8273011E0A1
:1016700097F82720396A13469B0013440B44013323
:101680001A787B685B789A420AD097F82730013342
:1016900087F827303B6A1B7897F827209A42E7D3D0
:1016A00097F82730314A342101FB03F31344033305
:1016B0001B78FB777B681B7A002B12D197F82730B9
:1016C0002A49342202FB03F20A4402321278013220
:1016D000D0B2264A342101FB03F3134402330246FD
:1016E0001A7097F82730214A342101FB03F3134481
:1016F00002331B78BB77BA7FFB7F9A421AD097F8E8
:101700002710BB7F03F00302184813465B00134405
:101710009B00342202FB01F21344C21807F10803B4
:10172000043207CA83E80700387A797AFA683B8A74
:1017300002F03AF80E4B1B68002B14D07B681B7A22
:10174000002B08D00A4B1B687A6810787A68083238
:101750000521984707E0064B1B687A68107807F167
:101760001402032198472837BD4680BDACFAFF1FFD
:10177000A4FAFF1F80B584B000AF78607B685B6817
:10178000BB607B68B3F809309BB2BB810D4B1B6813
:10179000002B14D07B681B7A002B08D0094B1B68E8
:1017A0007A6810787A6808320521984707E0054B77
:1017B0001B687A68107807F10802042198471037EF
:1017C000BD4680BDA4FAFF1FB0B58AB002AF034684
:1017D0003A60FB710B46BB71FB791846FFF7D4F8F2
:1017E000B861BB79022B68D10023BB770023FB755E
:1017F0000023BB75BB691B78FB75BB7DBB7712E013
:10180000BA7F13469B001344BA69134401333B610A
:101810003B6919783B699A78FB1D184601F03AFD3F
:10182000BB7F0133BB77BA7FF97DBB7D0B449A4206
:10183000E6DBBB7DBB7739E0BA7F13469B001344E0
:10184000BA6913440133FB60FB681978FB68B3F88D
:1018500003309CB2FB689D78FB685B78F81D002222
:10186000019200932B46224601F0D6FCFB685B7880
:10187000022B08D0032B06D1F879FB681B78254A88
:10188000194601F0C9FDFB681A78FB689B78DB01FB
:10189000DBB21343DBB243F01003D9B2FB1D0022CD
:1018A000184601F05DFDBB7F0133BB77BA7FF97D40
:1018B000BB7D0B449A42BFDB1FE0BB79002B1CD1E0
:1018C0000023FB7714E0FB7F134A342101FB03F371
:1018D0001344023300221A70FB7F0F4A342101FBAC
:1018E00003F31344033300221A70FB7F0133FB77A9
:1018F000BB691B78FA7F9A42E5D3084B1B68002B23
:1019000005D0064B1B68F879B9793A6898472037B3
:10191000BD46B0BD41150000ACFAFF1FA4FAFF1F81
:1019200090B587B000AFB9607A603B600346FB7347
:10193000CD23FB75BB681B7803F06003202B40F0C0
:10194000AE800023FB75BB685B78232B00F2A3807D
:1019500001A252F823F000BFE9190000F1190000BC
:10196000F91900000B1A00001D1A0000971A000058
:10197000971A0000971A0000971A0000971A0000A3
:10198000971A0000971A0000971A0000971A000093
:10199000971A0000971A0000971A0000971A000083
:1019A000971A0000971A0000971A0000971A000073
:1019B000971A0000971A0000971A0000971A000063
:1019C000971A0000971A0000971A0000971A000053
:1019D000971A0000971A0000611A00004F1A0000C1
:1019E000731A0000851A00003B6800221A8069E023
:1019F0003B6800221A8065E0F87B3B687A68B9682A
:101A000000F094FA0346FB755CE0F87B3B687A686B
:101A1000B96800F053FA0346FB7553E03B680222B5
:101A20001A807B681B6800221A707B681B685A1C2E
:101A30007B681A607B681B6800221A70F87B3B6821
:101A40007A68B96800F072FA0346FB753AE0F87BF1
:101A50003B687A68B96800F07BF90346FB7531E0B2
:101A6000F87B3B687A68B96800F090F90346FB752B
:101A700028E0F87B3B687A68B96800F0A9F903466A
:101A8000FB751FE0F87B3B687A68B96800F0FEF9E7
:101A90000346FB7516E03B6800221A8012E0BB6823
:101AA0001B7803F06003402B0CD1094B1B68002B03
:101AB00008D0074B1C68F87B3B687A68B968A04778
:101AC0000346FB75FB7D18461C37BD4690BD00BF25
:101AD000A8FAFF1F80B586B000AFB9607A603B609E
:101AE0000346FB730023BB75FB7B1846FEF74CFFD8
:101AF00038613B691B780133DAB297F82030F87B04
:101B0000002101F061FB0346BB75BB7D002B55D165
:101B1000FB7B2D4A2D49184601F09AFD0346BB7503
:101B20000023FB7535E0F97DFA7D386913469B008B
:101B30001344034401331878254A342303FB01F38B
:101B4000134402461A70F97DFA7D386913469B00EA
:101B500013440344023318781D4A342303FB01F372
:101B60001344013302461A70FB7D194A342101FBEC
:101B700003F31344023300221A70FB7D144A34210C
:101B800001FB03F31344033300221A70FB7D01337E
:101B9000FB753B691B78FA7D9A42C4D3FB7B39689D
:101BA000184600F0C1F80346BB75BB7D002B05D17C
:101BB000084ABB681360084A7B681360BB7D1846FF
:101BC0001837BD4680BD00BF21190000C9170000AD
:101BD000ACFAFF1FA4FAFF1FA8FAFF1F80B586B05A
:101BE00000AF3A601A460346FB710B46BB711346C1
:101BF000BB800023FB75FB791846FEF7C5FE3861F4
:101C00000023BB750DE0BA7D396913469B00134470
:101C10000B4401331B78BA799A4207D0BB7D01335C
:101C2000BB753B691B78BA7D9A42ECD3BB7D3D4ABC
:101C3000342101FB03F3134403331B78FB73BB7D97
:101C4000384A342101FB03F3134402331B78BB737E
:101C5000FA7BBB7BD31ADBB2042B5AD0FB7B03F09D
:101C600003037B73B97D7A7B2E4813465B001344D4
:101C70009B00342202FB01F2134403440433FA793B
:101C80001A70B97D7A7B274813465B0013449B008A
:101C9000342202FB01F2134403440533BA791A706B
:101CA000B97D7A7B1F4813465B0013449B003422A6
:101CB00002FB01F21344034408333A681A60B97D09
:101CC0007A7B184813465B0013449B00342202FBC6
:101CD00001F2134403440C33BA881A80BB7DFA7BAB
:101CE0000132FA730F4A342101FB03F31344033327
:101CF000FA7B1A70FA7BBB7BD31ADBB2012B0BD1B8
:101D0000BB88B979F8793A6801F04EFD0346FB7556
:101D100003E0C123FB7500E000BFFB7D18461837C8
:101D2000BD4680BDACFAFF1F80B485B000AF03464E
:101D30003960FB710023FB73044A3B681360FB7B33
:101D400018461437BD4680BC704700BF48FBFF1FD4
:101D500080B586B000AFB9607A603B600346FB7324
:101D6000BB689B88DAB2084B1A70074B1978FB7B6B
:101D70007A681846FEF716FE0346FB75FB7D18468B
:101D80001837BD4680BD00BF50FBFF1F80B586B031
:101D900000AFB9607A603B600346FB733B6800228A
:101DA0001A80BB689B88DAB2084B1A70074B197807
:101DB00007F10802FB7B1846FEF712FE0346FB758F
:101DC000FB7D18461837BD4680BD00BF50FBFF1F86
:101DD00080B584B000AFB9607A603B600346FB73A6
:101DE0003B6800221A80BB685B88DAB2234B1A700A
:101DF000234B00221A70214B1B7803F00203002BA7
:101E000014BF01230023D9B21D4A137861F34103A3
:101E100013701A4B1B7803F00203002B14BF01232D
:101E20000023D9B2164A137861F300031370134BE1
:101E30001B7803F00103DAB2124B1A70FB7B1846D1
:101E400000F0ACF8104B1B68002B12D00B4B1B782A
:101E500003F00203002B06D00B4B1B68F87B00221B
:101E60002221984705E0084B1B68F87B00222121BE
:101E70009847002318461037BD4680BD4DFBFF1F15
:101E800054FBFF1F4CFBFF1F48FBFF1F80B485B0B6
:101E900000AFB9607A603B600346FB733B68002289
:101EA0001A80BB685A88044B1A80002318461437DE
:101EB000BD4680BC704700BF4EFBFF1F80B586B09B
:101EC00000AFB9607A603B600346FB730023FB758B
:101ED0003B6802221A80BB689B88DAB2124B1A70E8
:101EE000BB685B88012B09D10F4B1978FB7B7A68A3
:101EF0001846FEF7A3FD0346FB7510E0BB685B8840
:101F0000022B09D1084B1978FB7B7A681846FEF73B
:101F1000B1FD0346FB7502E03B6800221A80FB7DA1
:101F200018461837BD4680BD50FBFF1F80B586B0F0
:101F300000AFB9607A603B600346FB730023FB751A
:101F40003B6802221A80BB689B88DAB2124B1A7077
:101F5000BB685B88012B09D10F4B1978FB7B7A6832
:101F60001846FEF7A3FD0346FB7510E0BB685B88CF
:101F7000022B09D1084B1978FB7B7A681846FEF7CB
:101F8000C1FD0346FB7502E03B6800221A80FB7D21
:101F900018461837BD4680BD50FBFF1F80B582B084
:101FA00000AF0346FB71084B1A78084B1A71084BB7
:101FB0001A78064B1A72F8790A23044A0321FFF7AC
:101FC0000DFE0837BD4680BD50FBFF1F04F0FF1F0C
:101FD00054FBFF1F80B582B000AF0346FB7128227F
:101FE0000021054801F059FD00F008F803461846A5
:101FF0000837BD4680BD00BF58FBFF1F80B400AF4F
:102000001849184B03F581531C331B6843F4000235
:1020100001F581531C331A60134B6FF003021A60F1
:10202000114B4BF68032C3F800210F4B6FF00102C9
:10203000C3F808210C4B6FF00202C3F808210A4BC9
:102040000122C3F80C21094B4FF08042C3F88021D4
:10205000064B4FF080421A6000231846BD4680BCF4
:10206000704700BF007004400070034000E100E0D2
:1020700080B500AF294BBF2283F88820274A274B21
:1020800093F89430DBB243F00203DBB282F8943071
:10209000224B002283F89820204B002283F8002155
:1020A000FF224FF410711E4801F04EF81D4B1B68C3
:1020B00000224FF48061184601F046F8194B1B6866
:1020C00003F50073184A1360184BFF221A70134A65
:1020D000124B93F89430DBB223F00203DBB282F8A8
:1020E00094300E4A0D4B93F80C31DBB243F04003B1
:1020F000DBB282F80C31094BBF2283F88C20074BEE
:102100009F2283F88420054A044B93F89430DBB275
:1021100023F02003DBB282F8943080BD002007401A
:1021200004F8FF1F00F8FF1F48FAFF1F00F0FF1F11
:1021300080B485B000AF0346FB710B46BB711346FC
:102140007B71FF23FB73FB79062B0BD8FB799B007C
:10215000DAB27B791344FB73BB79012B02D1FB7B91
:102160000233FB73FB7B18461437BD4680BC7047B7
:1021700080B584B000AF0346FB710B46BB711346BC
:102180007B717A79B979FB791846FFF7D1FF03465D
:10219000FB73FB7BFF2B10D0FB7B5B08DBB219468C
:1021A000084A0B46DB000B445B0013441B884FF6C8
:1021B000FF72934201D1FF23FB73FB7B184610375C
:1021C000BD4680BD04F8FF1F80B485B000AF7860C5
:1021D00039603B68D3F806303A68928992B213446A
:1021E000BB600023FB813B685B899BB21A463B685E
:1021F0009B899BB2D31A3A68128892B2934206DD49
:102200003B681A785B781B021343FB8107E03B684D
:102210005B899AB23B689B899BB2D31AFB817B682E
:10222000FA895A80BA687B685A601437BD4680BC08
:10223000704700BF80B582B000AF03460A46FB710D
:102240001346BB71424B002283F80021414AFB79BF
:102250001370FF224FF410713F4800F075FF3F4BA1
:102260003F4A1A603D4B1B6800224FF480611846BC
:1022700000F06AFF3B4BFF221A70354A344B93F84B
:102280000C31DBB243F04003DBB282F80C31BB7996
:10229000002B06D0344A344B1B6843F000431360D4
:1022A00005E0314A304B1B6823F000431360284A95
:1022B0002A4B1B681B0ADBB223F00103DBB282F856
:1022C0009C30234B254A1268120CD2B283F8B020FE
:1022D0001F4B224A1268120ED2B283F8B4201F4B51
:1022E0001B6803F50073214A1360194B102283F811
:1022F0000821174B012283F89420154BBF2283F845
:102300008020134A124B93F80031DBB203F07F03B5
:10231000DBB282F800310E4A0D4B93F88430DBB209
:1023200043F00103DBB282F88430094A084B93F88A
:102330008430DBB243F01003DBB282F88430044B0C
:1023400084221A77002318460837BD4680BD00BF97
:102350000020074044FAFF1F04F8FF1F00F8FF1F8A
:1023600000F4FF1F00F0FF1F0070044048FAFF1F39
:1023700080B588B000AF03463960FB711346BB716E
:102380003B681B78FB773B689B78BB77754A07F106
:102390000C0392E8030083E803003B68B3F80330C2
:1023A0009BB2B3F5007F06D93B680022DA700022A9
:1023B00042F002021A71B97FFB7F00221846FFF734
:1023C000B7FE03467B777B7F5B083B777B7FFF2BEA
:1023D00013D03A7F64491346DB0013445B000B447F
:1023E0001B884FF6FF72934207D13B685B78032B43
:1023F00003D83B689B78012B01D99523ADE03A7F48
:102400001346DB0013445B00574A1344BB61BB69AE
:10241000DB7BFF2B02D1BB690022DA733B68B3F888
:1024200003309AB2BB691A80BB69BA799A73BB69E7
:10243000DB7B03F00103DAB2BB69DA73BB69DB7BD8
:10244000DAB2BB7F5B00D9B2FB7F9B00DBB20B43F0
:10245000DBB21343DBB2DAB2BB69DA73434B1A68FF
:10246000BB69C3F802203B685A78BB695A74BB69E0
:10247000BA7F1A743E4B1A68BB69DB7BDB001344DE
:102480007B613B68B3F803309AB27B695A80374B63
:102490001A687B695A607B6908221A70344B1A6883
:1024A000BB69DB7B83F00103DBB2DB0013447B61A0
:1024B0003B68B3F803309AB27B695A802B4B1A6899
:1024C0007B695A607B6948221A703B68B3F8033015
:1024D0009BB21A46254B1B681344244A1360BB7FEA
:1024E000002B0DD1224B1A68BB69DB7BDB00134448
:1024F0007B617B691B7863F07F03DAB27B691A70BA
:10250000B97FBB7F9B0007F12002134453F8142CC2
:102510003B685B78012B01D0012300E000231A43C4
:102520008B0007F120010B4443F8142CFB7F9B0028
:10253000104A1A44FB7F9B0019460E4B0B441B7834
:10254000D9B2BB7F9B0007F12000034453F8143C31
:10255000DBB20B43DBB21370002318462037BD46B5
:1025600080BD00BFB03A000004F8FF1F48FAFF1F0B
:1025700000F8FF1FC020074080B586B000AF78602C
:102580000B46FB701346BB70C423FB75B978FB7810
:1025900000221846FFF7ECFD0346BB75BB7D5B08C8
:1025A0007B75BB7DFF2B2FD07A7D1346DB00134458
:1025B0005B00184A13443B61174B1A683B69DB7B8D
:1025C000DB001344FB60144B1A683B69DB7B83F030
:1025D0000103DBB2DB001344BB60FB681B7803F034
:1025E0007F03DAB2FB681A70BB681B7803F07F03C5
:1025F000DAB2BB681A703B694FF0FF329A724FF043
:10260000FF32DA720023FB75FB7D18461837BD4692
:1026100080BD00BF04F8FF1F00F8FF1F80B584B025
:1026200000AF0346FB710B46BB7113467B71797992
:10263000BB7900221846FFF79BFD0346FB73FB7B2B
:102640005B08BB73FB7BFF2B01D1962331E07A79CA
:10265000B979FB1D1846FFF78FFF184B1968BA7B35
:1026600017481346DB0013445B0003441B88CB1A56
:10267000124A1360BB799B001A46124B1344002286
:102680001A70BA7B0E491346DB0013445B000B44FF
:102690004FF6FF721A80BA7B09491346DB001344D8
:1026A0005B000B444FF0FF325A804FF0FF329A80AC
:1026B000002318461037BD4680BD00BF48FAFF1FF3
:1026C00004F8FF1FC020074080B584B000AF7860D9
:1026D0000B46FB701346BB70B978FB780022184696
:1026E000FFF746FD0346FB73FB7B5B08DBB21A4634
:1026F0001346DB0013445B000F4A1344BB60BB6806
:10270000DB7BFB73FB7BFF2B12D0BA78FB7819467F
:102710007868FFF731FF094B1B68FA7B07490968A6
:10272000F87B11F8301061F07B01C9B203F8321068
:102730001037BD4680BD00BF04F8FF1F00F8FF1F23
:1027400080B586B000AF78600B46FB701346BB7057
:10275000B978FB7800221846FFF70AFD0346FB759F
:10276000FB7D5B08DBB21A461346DB0013445B00BB
:10277000274A13443B613B69DB7BFB75FB7DFF2BE9
:1027800042D0FB789B001A46224B1344FB60FB7837
:10279000002B18D03B695B7C012B01D0012300E0AA
:1027A0000023FB72BB78012B01D1142200E0182218
:1027B000FB7A1343DBB2FB72FB681A78FB7A134394
:1027C000DAB2FB681A70FA6813786FF3410313707A
:1027D000114B1B68FA7D10490968F87D11F830101B
:1027E00001F07B01C9B203F832100B4B1B68FA7D74
:1027F000002103F83210BB78002B05D1F9780023B3
:102800000022786800F040F81837BD4680BD00BF50
:1028100004F8FF1FC020074000F8FF1F80B586B0F6
:1028200000AF03460A46FB711346BB71B979FB79C9
:1028300000221846FFF79CFC0346FB75FB7D5B08F6
:10284000DBB21A461346DB0013445B000B4A134409
:102850003B613B69DB7BFB75FB7DFF2B0BD0FB7981
:102860009B001A46064B1344FB60064B1B68FA7D1F
:10287000002103F832101837BD4680BD04F8FF1F51
:10288000C020074000F8FF1F80B588B000AFF86097
:102890007A603B600B46FB729423FB77FB7A002245
:1028A00000211846FFF764FC0346BB77BB7F5B083B
:1028B000DBB21A461346DB0013445B003E4A134466
:1028C000BB61BB69DB7BBB77BB7FFF2B6ED03B4B18
:1028D0001A68BB7F83F00103DBB2DB0013447B612A
:1028E00000233B61BB691B889BB24FF6FF7293428A
:1028F0005CD07B691B7823F07F03DBB2002B55D1C2
:102900003B68002B1ED12D4B1A68BB7FDB001344A4
:102910003B61BB691B889AB23B695A80BB69D3F89B
:1029200002203B695A603B691B78C3F38013DBB21A
:102930009B01DBB263F07703DBB2DAB23B691A705A
:10294000002334E03B689AB2BB695A81BB697A685C
:10295000C3F80620BB691B889BB21A463B689A42A3
:1029600003D2BB691B889BB23B60BB6900221A7310
:1029700000225A73114B1A68BB7FDB0013443B6182
:102980003B689AB23B695A807A683B695A603B69F6
:102990001B78C3F38013DBB29B01DBB263F07703D8
:1029A000DBB2DAB23B691A700023FB77FB7F184673
:1029B0002037BD4680BD00BF04F8FF1F00F8FF1F91
:1029C00080B588B000AFF8607A603B600B46FB7260
:1029D0009323FB77FB7A002201211846FFF7C8FBFF
:1029E0000346BB77BB7F5B08DBB21A461346DB00AE
:1029F00013445B00274A1344BB61BB7FFF2B01D10B
:102A0000932342E0BB69DB7BBB77234B1A68BB7F18
:102A1000DB0013447B617B691B7823F07F03DBB20F
:102A2000002B31D1FB7A9B001A461C4B13441B78B8
:102A3000DBB203F00203002B26D13B689AB2BB69DC
:102A40005A81BB697A68C3F80620BB6900221A73F1
:102A500000225A73B9697869FFF7B6FBFB7A002B3D
:102A600003D17B69C8221A700CE07B691B78C3F321
:102A70008013DBB29B01DBB263F07703DBB2DAB227
:102A80007B691A700023FB77FB7F18462037BD4611
:102A900080BD00BF04F8FF1F00F8FF1FC0200740E3
:102AA00080B582B000AF78600B46FB70054AFB78BA
:102AB00082F8983001220121034800F051FC0837C8
:102AC000BD4680BD0020074044FAFF1F80B584B09A
:102AD00000AF7860294A294B93F80031DBB203F04C
:102AE0007F03DBB282F80031244A244B93F80C3187
:102AF000DBB223F02003DBB282F80C311F4A1F4BFC
:102B000093F88030DBB243F02003DBB282F88030F0
:102B10001A4A1A4B93F88430DBB223F02003DBB25D
:102B200082F88430154A154B93F89430DBB223F0C9
:102B30002003DBB282F89430104A104B93F89430A3
:102B4000DBB243F00403DBB282F8943044F6206336
:102B5000FB81FB89013BFB81FDF7E6FCFB89002B38
:102B6000F7D1064A054B93F89430DBB223F0040307
:102B7000DBB282F894301037BD4680BD002007409C
:102B800080B588B000AF03463960FB710023FB7746
:102B90000023BB6100237B6100233B61FB799B1019
:102BA000DBB203F00103FB73FB79DB10DBB203F054
:102BB0000103DAB23B68DA703B6858783B68DB782F
:102BC000FA7B1946FFF7B4FA0346FB77A44B1A6861
:102BD000FB7FDB001344BB61A14B1A68FB7F83F0D2
:102BE0000103DBB2DB0013447B61FB7F5B08DBB2DC
:102BF0001A461346DB0013445B009A4A13443B61B8
:102C0000BB695B681A463B685A60BB695B889AB2CD
:102C10003B68A3F809203B69DB7B83F00103FB776A
:102C20003B69FA7FDA73BB691B78C3F38013DBB2AD
:102C300083F00103DBB29B01DAB27B691A703B6857
:102C4000DB78012B62D13B685B78002B15D1864B7A
:102C50001B78002B11D1844BFF221A703B68002295
:102C600000211846FFF788FC7B6900221A7038683B
:102C7000002300220021FFF707FE7B4B1B78012B6E
:102C800004D03B685B78002B00F003813B699B8993
:102C90009AB23B68B3F809309BB213449AB23B69CD
:102CA0009A813B695B899AB23B699B899BB29A4244
:102CB0000ED83B68B3F809309BB2DBB29AB23B69DD
:102CC0001B889BB29A4215D13B699B7B012B11D18A
:102CD00039697869FFF778FA7B691B78C3F3801349
:102CE000DBB29B01DBB263F07703DBB2DAB27B6964
:102CF0001A70D5E03B69D3F806203B685A603B69FF
:102D00009B899AB23B68A3F80920C3E03B685B78D3
:102D1000002B27D1BB691B7803F03C03DBB2342BBB
:102D20000AD13B6801229A703B685B681B78DB091B
:102D3000DAB24D4B1A7015E04B4B1B78012B11D1B9
:102D4000494BFF221A703B68012200211846FFF709
:102D500013FC7B6900221A703868002300220021CE
:102D6000FFF792FD3B695B899BB24FF6FF7293427E
:102D700000F090803B685A7A9B7A1B021343BB8118
:102D80003B699B899AB2BB8913449AB23B699A8189
:102D90003B691B889BB2BA899A4207D13B695B8920
:102DA0009AB23B699B899BB29A4216D83B695B8970
:102DB0009BB2002B5AD03B695B899BB23A6912885F
:102DC00092B2B3FBF2F102FB01F29B1A9BB2002B11
:102DD0004CD13B699B7B012B48D13B695B899BB202
:102DE0001A463B699B899BB2D31A3A69128892B200
:102DF000934203DD3B691B889BB207E03B695B891B
:102E00009AB23B699B899BB2D31A9BB27B817B8927
:102E1000002B0AD13B69D3F802207B695A607B6999
:102E200000229A700022DA700CE03B69D3F8063079
:102E30003A69928992B213441A467B695A607B6957
:102E40007A895A807B691B78C3F38013DBB29B01BC
:102E5000DBB263F07703DBB2DAB27B691A701FE092
:102E600000F8FF1F04F8FF1F00F0FF1F3B69D3F8B5
:102E700006203B685A603B699B899AB23B68A3F87D
:102E800009203B694FF0FF329A724FF0FF32DA723D
:102E900000E000BF3B685B783968184600F0CAFA6A
:102EA0002037BD4680BD00BF80B588B000AFA44BC1
:102EB00093F88030FB77A24B93F88430BB77FA7F8E
:102EC000BB7F13407B779E4B93F890303B77FF237B
:102ED000FB719C4B1B783B720023BB720023FB6091
:102EE00000237B740023BB740023FB7200233B741C
:102EF000FF237B72FB1D1A460121924800F0FEF968
:102F00008F4B93F80C31DBB203F00103002B16D08A
:102F1000FB79802B13D18A4A894B93F80031DBB2BD
:102F200003F07F03DBB282F80031854A844B93F8CB
:102F30000C31DBB223F02003DBB282F80C317B7F53
:102F400003F00403002B21D07D4B93F8A430DBB2B7
:102F50007B8308233B837A4B93F8A030DBB2FB8260
:102F6000774B042283F880207A8B3B8B02FA03F3A1
:102F70009AB2FB8A13439BB29BB2BB803B1DFB60A2
:102F800007F108031946122000F054FA7B7F03F082
:102F90000103002B16D06A4B012283F88020FFF733
:102FA00067F807F108031946102000F043FA644A55
:102FB000634B93F89430DBB223F02003DBB282F84A
:102FC0009430B9E07B7F03F00803002B18D05C4BF2
:102FD000082283F880203B7F1B09DBB27B7207F15C
:102FE00008023B7F11461846FFF7CAFD544A544B6E
:102FF00093F89430DBB223F02003DBB282F89430F4
:103000007B7F03F00203002B24D04D4B022283F878
:1030100080204B4B93F88830FB77494B93F88C30EA
:10302000BB77FA7FBB7F1340DBB23B7407F1080329
:103030001946162000F0FEF9414BBF2283F8882084
:103040003F4A3F4B93F89430DBB223F02003DBB2CE
:1030500082F894307B7F03F01003002B2BD0384B89
:10306000202283F88020364B102283F8802007F13D
:1030700008031946142000F0DDF9314A304B93F86B
:103080000C31DBB243F02003DBB282F80C312C4A66
:103090002B4B93F80031DBB263F07F03DBB282F895
:1030A0000031274A264B93F88430DBB243F02003EB
:1030B000DBB282F884307B7F03F02003002B13D037
:1030C0001F4B202283F8802007F1080319461320A4
:1030D00000F0B0F91A4A1A4B93F88430DBB223F0AF
:1030E0002003DBB282F884307B7F5BB2002B23DAD3
:1030F000FF237B72BA1D07F108031021184600F068
:10310000FDF8BB79012B03D100237B720123FB72F5
:103110000B4B802283F8802007F108031946172003
:1031200000F088F9064A064B93F89430DBB223F09E
:103130002003DBB282F894302037BD4680BD00BF4B
:103140000020074044FAFF1F80B584B000AFF8604C
:10315000B9601346FB71FB79BA681946F86800F04C
:103160009CFC1037BD4680BD80B483B000AF002307
:10317000FB71114B1A78114B1A700023FB7106E09A
:10318000FB790F4AFF21D154FB790133FB71FB79A5
:10319000062BF5D90023FB7106E0FB79094A0521CE
:1031A000D154FB790133FB71FB79062BF5D90C3730
:1031B000BD4680BC704700BF5CFAFF1F5BFAFF1F73
:1031C0004CFAFF1F54FAFF1F80B582B000AF396080
:1031D00011461A460346FB710B46BB7113467B71C1
:1031E000BB79072B02D8BB79002B01D199230DE0C5
:1031F000BB79013BDAB2074B1A70FFF7B5FF7A795A
:10320000FB7911461846FFF715F8034618460837AC
:10321000BD4680BD5CFAFF1F80B584B000AF78600A
:10322000084611461A460346FB700B463B80134680
:10323000BB700023FB73164B1B78002B04D1FB786B
:10324000002B01D095231FE0BB78BB72FB783B724B
:103250003B88A7F80B303B7E7B727B681B783A7FFC
:1032600007F108011846FFF783F80346FB733B7A22
:10327000002B08D0FB7B002B05D1054B1B78013BB5
:10328000DAB2034B1A70FB7B18461037BD4680BD7F
:103290005BFAFF1F80B584B000AF78600B46FB700F
:1032A0001346BB700023FB73124B1A78124B1B782A
:1032B0009A4204D1FB78002B01D0962315E07B685D
:1032C0001B78BA78F9781846FFF7A8F90346FB731C
:1032D000FB78002B08D0FB7B002B05D1054B1B781E
:1032E0000133DAB2034B1A70FB7B18461037BD4628
:1032F00080BD00BF5BFAFF1F5CFAFF1F80B487B080
:1033000000AFF8600B467A60FB72FB7A03F00F03A4
:10331000FB75FB7A072B09D8FB7A002B06D0FB7ACA
:10332000013B0D4AD25C7B681A700FE0FB7A03F018
:103330001003002B08D0FB7D062B05D8FB7D074A28
:10334000D25C7B681A7001E0822300E000231846FB
:103350001C37BD4680BC70474CFAFF1F54FAFF1F54
:1033600080B584B000AF78600B46FB701346BB702D
:10337000FB7803F00F03FB73FB78072B08D8FB786F
:10338000002B05D0FB78013B2149BA78CA5439E0BB
:10339000FB7803F01003002B32D0FB7B062B2FD8D9
:1033A000FB78DB09BB73BB78012B06D1BA7BFB7BB7
:1033B00019467868FFF788F91DE0BB78002B1AD111
:1033C000FB7B144AD35C012B15D1BA7BFB7B1946DE
:1033D0007868FFF7B5F9FB7B002B0CD1BB7B012B89
:1033E00014BF01230023DBB2BB73BA7BFB7B1946FE
:1033F0007868FFF7A5F9FB7B0649BA78CA5401E063
:10340000822300E0002318461037BD4680BD00BF70
:103410004CFAFF1F54FAFF1F80B483B000AF03467D
:103420003A60FB710B46BB71002318460C37BD4652
:1034300080BC704780B582B000AF03463960FB7135
:10344000FB79102B01D1FFF78FFEFB79074A52F869
:103450002330002B05D0FB79044A52F8233038681A
:103460009847002318460837BD4680BDB83A00008B
:1034700080B483B000AF786000BF0C37BD4680BC1D
:10348000704700BF80B582B000AF78607B680A4AA1
:1034900001211846FFF732FF7B6880220121184680
:1034A000FFF75EFF054B1B687A68107800220A213F
:1034B00098470837BD4680BD64FAFF1F60FAFF1FBA
:1034C00080B584B000AF78607B6807F10F020121FE
:1034D0001846FFF713FFFB7B802B06D17868084B5B
:1034E0001B781A460121FFF73BFF064B1B687A68E1
:1034F000107800220B2198471037BD4680BD00BFD1
:1035000064FAFF1F60FAFF1F80B582B000AF7860D9
:103510007B685B78002B0CD178687B68DB78DB01FB
:10352000DBB243F01003DBB2DBB200221946FFF737
:1035300017FF0837BD4680BD80B584B000AF786006
:103540007B685B681B78FB81FB891B02FB817B68C6
:103550005B6801331B789AB2FB891343FB817B685C
:10356000FA89D2B205211846FFF7FAFE1037BD4698
:1035700080BD00BFB0B586B002AF78600123BB72DA
:1035800000233B72002343F01003FB7200233B73C4
:1035900000237B727B68397ABA7A1846FFF77AFE85
:1035A0000346FB737868397AB7F80B309CB2BD7A62
:1035B0007B7A0122019200932B462246FFF72CFED4
:1035C0000346FB730023BB727B68397ABA7A1846CC
:1035D000FFF760FE7868397AB7F80B309CB2BD7A95
:1035E0007B7A0122019200932B462246FFF714FEBC
:1035F0007B68022201211846FFF7B2FE7B68012298
:1036000006211846FFF7ACFE7B6800229021184681
:10361000FFF7A6FE044B1B687A6810780022002191
:1036200098471037BD46B0BD60FAFF1F80B582B025
:1036300000AF7860054B1B687A6810787A680832AA
:10364000052198470837BD4680BD00BF60FAFF1FBF
:1036500080B586B000AF0346B9607A60FB73FB7B30
:103660007A68B968184600F0C9F80346FB752B4A1A
:10367000BB681360FB7D002B4BD1FB7B284A1021DC
:103680001846FFF7C9FE03461A46FB7D1343FB7538
:10369000FB7B244A12211846FFF7BEFE03461A465A
:1036A000FB7D1343FB75FB7B1F4A14211846FFF774
:1036B000B3FE03461A46FB7D1343FB75FB7B1B4A97
:1036C00013211846FFF7A8FE03461A46FB7D134355
:1036D000FB75FB7B164A17211846FFF79DFE034634
:1036E0001A46FB7D1343FB75FB7B124A16211846D5
:1036F000FFF792FE03461A46FB7D1343FB7507F165
:103700000F03032201211846FFF72AFE0A4B03226A
:103710001A70FB7D18461837BD4680BD60FAFF1F42
:10372000753500003935000085340000C1340000D3
:10373000093500002D36000064FAFF1F80B584B003
:1037400000AF0346FB7107F10F02FB1D0121184674
:10375000FFF7D4FD07F10E02FB1D06211846FFF707
:10376000CDFDFB7B802B19D1BB7B03F00203002B2B
:1037700014D0FB791846FDF7FBF80346012B0DD159
:1037800072B6FB1D1846FFF7A1F90023FB73FB1D62
:10379000002201211846FFF7E3FD62B6FB7B1846C5
:1037A0001037BD4680BD00BF80B584B000AF3A6021
:1037B0001A460346FB710B46BB711346BB800023C0
:1037C000FB73FB791846FFF7B9FF0346BB73BB7B5E
:1037D000802B07D0BB88B979F81D3A68FFF7F0F85D
:1037E0000346FB73FB7B18461037BD4680BD00BF08
:1037F00080B400AFBD4680BC704700BF80B586B0C6
:1038000000AF0346B9607A60FB730023FB75094A79
:10381000BB681360084A7B681360FB7B074A002182
:103820001846FFF7F9FD0346FB75FB7D1846183770
:10383000BD4680BD74FAFF1F78FAFF1F41380000B3
:1038400090B589B002AF78600023BB75CD23FB75BE
:1038500000233B617B6807F1160201211846FFF740
:103860004DFD7B689B78012B40F08C807B685B680A
:1038700008221946604800F005F95F4B9A885E4BB4
:103880009A805D4B5A885C4B5A805B4BDA885A4B66
:10389000DA80594B1B7803F06003002B29D1564B7B
:1038A0005B781A46554B53F82230002B5AD0BB7D1B
:1038B000022B57D8504B5B781946BB7D1846504AAF
:1038C0000B465B000B44134403441B78012B49D186
:1038D000494B5B781A46494B53F822407B6818786D
:1038E00007F10E0307F110024349A0470346FB7599
:1038F0003BE0414BDB88FB81FB89202B25D8FB89F2
:10390000002B11D03C4B1B78DBB25BB2002B0BDBE6
:10391000082239493B4800F0B5F878683A4AFB89F3
:103920000021FEF7B1FF63E0384B1B68002B1BD072
:10393000364B1C687B68187807F10E0307F11002FC
:103940002D49A0470346FB750FE07B68187807F107
:10395000100207F10E0300931346274ACD21FDF70D
:1039600003FB45E000BF00E000BF7B68187807F16B
:103970001002F97D07F10E03009313461E4AFDF76E
:10398000F3FA35E0BB7D042B05D17B681B78184624
:10399000FDF7ACFC2CE0184B1B78DBB25BB2002BC4
:1039A00026DB7B68DB78002B22D1184B1B68002BB1
:1039B00012D07B68B3F809309BB208339BB2FB810D
:1039C000124B1C687B68187807F10E0307F1100290
:1039D0000C49A0470346FB757B68187807F1100275
:1039E000F97D07F10E0300931346034AFDF7BCFA75
:1039F0001C37BD4690BD00BF68FAFF1F403B00006A
:103A0000183B00007CFAFF1F84FAFF1F78FAFF1FA3
:103A100008B5074B044613B10021AFF30080054BF6
:103A20001868836A03B19847204600F03FF800BF4A
:103A300000000000EC3B000070B50E4B0E4CE41A89
:103A4000A41000251E46A54204D056F825309847FC
:103A50000135F8E700F0CCF8084C094BE41AA41043
:103A600000251E46A54204D056F82530984701355A
:103A7000F8E770BD103C0000103C0000143C000052
:103A8000103C000010B5431E0A44914204D011F8C6
:103A9000014B03F8014FF8E710BD0244034693427F
:103AA00002D003F8011BFAE770470000FEE700BFF1
:103AB0000800000004000000413800004516000026
:103AC00075170000411500007134000071340000CA
:103AD0007134000071340000713400007134000052
:103AE0007134000071340000713400007134000042
:103AF0007134000071340000753500008534000019
:103B000039350000C13400008534000071340000F4
:103B10002D36000009350000010100010100000000
:103B2000000101000000000001010101010000008E
:103B3000010100010100010000010000010000007E
:103B4000D50F00003D110000000000003D110000F5
:103B500000000000B1120000ED14000000000000A1
:103B60002D130000791300000D1400005D140000F7
:103B7000A51400000301020110000202001000035E
:103B800003011000000012004300000000000000CC
:103B9000000000000000000010F0FF1F24F0FF1FD5
:103BA0000000000000000000000000000000000015
:103BB00000000000043A1E2268F0FF1F6CF0FF1F97
:103BC000A8F0FF1FC8F0FF1F68F0FF1F04000000EF
:103BD00009040000B83B0000B43B000000000000F6
:103BE000000000000000000000014300FCF0FF1F87
:103BF000F8B500BFF8BC08BC9E467047F8B500BFDA
:083C0000F8BC08BC9E467047A9
:083C0800ACC8FF7F01000000C1
:043C10007D0400002F
:043C14005504000053
:103C1800FF000000A12000000000020000000000DA
:103C28001201000202000010A215000302000102A6
:103C38000001000009024300020100C0320904002B
:103C48000001020200000524001001052401010101
:103C58000424020605240600010705830310000A50
:103C680009040100020A0000000705810210000093
:103C78000705020210000000040309043A03460085
:103C88005200450045005300430041004C004500E8
:103C98002000530045004D00490043004F004E00EE
:103CA80044005500430054004F00520020004900D2
:103CB8004E0043002E0000001E03200020004D008F
:103CC8004B0020004300440043002000440045000E
:103CD8004D004F0020000000220342004100440034
:103CE800200053005400520049004E0047002000B5
:103CF80049004E00440045005800000000C2010081
:103D080000000800000000000000010000000000A2
:103D1800000000000000000000000000000000009B
:103D2800000000000000000000000000EA3B000066
:103D3800000000000000000000000000000000007B
:103D4800000000000000000000000000000000006B
:103D5800000000000000000000000000000000005B
:0C3D68000000000000000000000000004F
:103D7400183C000000F0FF1F5C010000743D0000CF
:103D8400000000200000000000000000000000000F
:043D9400000000002B
:0400000300000F35B5
:00000001FF
